:100000000C941C010C9444010C9444010C94440184
:100010000C9444010C9444010C9444010C9444014C
:100020000C9444010C9444010C9444010C9444013C
:100030000C9444010C9444010C9444010C9444012C
:100040000C9454040C9444010C94C4040C949E0429
:100050000C9444010C9444010C9444010C9444010C
:100060000C9444010C94440107634236B79BD8A713
:100070001A39685618AEBAAB558C1D3CB7CC5763CD
:10008000BD6DEDFD753EF6177231BF000000803F7B
:1000900008000000BE922449123EABAAAA2ABECD97
:1000A000CCCC4C3E00000080BEABAAAAAA3E000009
:1000B0000000BF000000803F000000000008417801
:1000C000D3BB4387D1133D190E3CC3BD4282AD2B38
:1000D0003E68EC8276BED98FE1A93E4C80EFFFBE30
:1000E00001C4FF7F3F000000000000407A10F35A77
:1000F00000A0724E18090010A5D4E80000E8764868
:10010000170000E40B54020000CA9A3B000000E113
:10011000F505000080969800000040420F000000A6
:10012000A08601000000102700000000E803000086
:1001300000006400000000000A0000000000010050
:10014000000000002C76D888DC674F0823DFC1DF71
:10015000AE59E1B1B796E5E3E453C63AE651997674
:1001600096E8E6C28426EB898C9B62ED407C6FFCAE
:10017000EFBC9C9F40F2BAA56FA5F490055A2AF7F0
:100180005C936B6CF9676DC11BFCE0E40D47FEF5F9
:1001900020E6B500D0ED902E030094357705008061
:1001A000841E080000204E0A000000C80C333333C0
:1001B000330F986E12831141EF8D2114893BE65560
:1001C00016CFFEE6DB18D1844B381BF77C1D901D43
:1001D000A4BBE424203284725E228100C9F124ECA5
:1001E000A1E53D270000000800020100000304070C
:1001F00000000000000000000000000025002800B2
:100200002B0000000000240027002A00040404043E
:1002100004040404020202020202030303030303B0
:10022000010204081020408001020408102001028D
:1002300004081020F604FB0711241FBECFEFD8E0FE
:10024000DEBFCDBF22E0A6E5B1E001C01D92AC3318
:10025000B207E1F711E0A0E0B1E0E0EBF0E202C0AC
:1002600005900D92A635B107D9F711E0CBE1D1E0A9
:1002700004C02197FE010E94530ECA31D107C9F76D
:100280000E944F050C944B100C94000090E0FC0170
:10029000E05EFD4F2491845F9D4FFC018491882393
:1002A00099F090E0880F991FFC01EE5FFD4FA5913A
:1002B000B491FC01E850FE4F859194918FB7F8946A
:1002C000EC91E22BEC938FBF089590E0FC01EC5190
:1002D000FE4F2491FC01E05EFD4F3491FC01E45F90
:1002E000FD4FE491EE23C9F0222339F0233001F1D0
:1002F000A8F4213019F1223029F1F0E0EE0FFF1FB0
:10030000E850FE4FA591B4918FB7F894EC9161112C
:1003100026C030953E233C938FBF08952730A9F027
:100320002830C9F0243049F7809180008F7D03C0C8
:10033000809180008F7780938000DFCF84B58F77A6
:1003400084BDDBCF84B58F7DFBCF8091B0008F77EC
:100350008093B000D2CF8091B0008F7DF9CF3E2B3B
:10036000DACF0895AF92BF92CF92DF92EF92FF92D1
:100370000F931F93CF93DF936C017B018B01040FCD
:10038000151FEB015E01AE18BF08C017D10759F069
:100390006991D601ED91FC910190F081E02DC601AB
:1003A0000995892B79F7C501DF91CF911F910F91A5
:1003B000FF90EF90DF90CF90BF90AF900895FC0139
:1003C000538D448D252F30E0842F90E0821B930BBA
:1003D000541710F0CF96089501970895FC01918D60
:1003E000828D981761F0A28DAE0FBF2FB11D5D9663
:1003F0008C91928D9F5F9F73928F90E008958FEF05
:100400009FEF0895FC01918D828D981731F0828DB8
:10041000E80FF11D858D90E008958FEF9FEF08950F
:10042000FC01918D228D892F90E0805C9F4F821B73
:1004300091098F73992708958DE791E00E9410022A
:1004400021E0892B09F420E0822F089580E090E0DC
:10045000892B29F00E941C0281110C940000089540
:10046000FC01A48DA80FB92FB11DA35ABF4F2C9129
:10047000848D90E001968F739927848FA689B78920
:100480002C93A089B1898C91837080648C93938D17
:10049000848D981306C00288F389E02D80818F7DBA
:1004A00080830895EF92FF920F931F93CF93DF9372
:1004B000EC0181E0888F9B8D8C8D98131AC0E889A0
:1004C000F989808185FF15C09FB7F894EE89FF896F
:1004D0006083E889F98980818370806480839FBF0D
:1004E00081E090E0DF91CF911F910F91FF90EF900D
:1004F0000895F62E0B8D10E00F5F1F4F0F7311271D
:10050000E02E8C8D8E110CC00FB607FCFACFE88957
:10051000F989808185FFF5CFCE010E943002F1CFAD
:10052000EB8DEC0FFD2FF11DE35AFF4FF0829FB7CB
:10053000F8940B8FEA89FB8980818062CFCFCF93BB
:10054000DF93EC01888D8823B9F0AA89BB89E889FB
:10055000F9898C9185FD03C0808186FD0DC00FB6A1
:1005600007FCF7CF8C9185FFF2CF808185FFEDCF1F
:10057000CE010E943002E9CFDF91CF91089590E043
:1005800080E00895CF93DF93EC0160E08E810E94BC
:10059000650161E08E810E94650160E08E810E94AC
:1005A00065018BE891E00197F1F7DF91CF91089514
:1005B000CF92DF92EF92FF920F931F93CF93DF932F
:1005C0006C017C0187E0E80EF11CD0E0C0E0062F52
:1005D00010E0B8010C2E02C0759567950A94E2F7F9
:1005E0006170F70181917F010E9465012196C430FD
:1005F000D10579F7C601DF91CF911F910F91FF903F
:10060000EF90DF90CF900C94C202CF92DF92EF92E6
:10061000FF920F931F93CF93DF93EC01F62E642F7D
:100620008C810E9465018D818F3F19F060E00E94EE
:1006300065010F2D10E08F8584FF25C06E0187E0D6
:10064000C80ED11CF12CE12CB8010E2C02C07595FE
:1006500067950A94E2F76170F60181916F010E943B
:100660006501FFEFEF1AFF0A88E0E816F10461F771
:10067000CE01DF91CF911F910F91FF90EF90DF900E
:10068000CF900C94C202B80184E0759567958A9565
:10069000E1F7CE010E94D8026F2DCE01DF91CF91FC
:1006A0001F910F91FF90EF90DF90CF900C94D802A4
:1006B00040E0682F80E292E00C940503CF93DF9333
:1006C000823029F490912F02986090932F028093AA
:1006D00033021092340280E48093350280E18093EB
:1006E000360280E580933702809124020E94460101
:1006F000809125028F3F11F00E94460180912602D1
:100700000E944601C0E2D2E09E0120523240809118
:100710002F0284FD0AC084E090E021962817390753
:100720003CF48E810E944601EFCF88E090E0F5CF47
:100730008BE39DE00197F1F760E0809124020E9435
:10074000650160E0809126020E946501809125028A
:100750008F3F19F060E00E94650180912F0284FDB7
:1007600039C063E080E292E00E94D802CBE4D6E494
:10077000CE010197F1F763E080E292E00E94D80297
:100780002197F1F763E080E292E00E94D80283E5CE
:1007900092E00197F1F762E080E292E00E94D802D5
:1007A00080912F0280620E94580384E0809330027F
:1007B0008CE00E94580381E00E9458038BE39FE184
:1007C0000197F1F782E08093310286E0DF91CF91CB
:1007D0000C94580380620E9458038BE496E40197BE
:1007E000F1F780912F0280620E94580383E592E026
:1007F0000197F1F780912F0280620E945803D0CFB9
:1008000041E00E94050381E090E00895FB01019022
:100810000020E9F73197AF01461B570BDC01ED9142
:10082000FC910280F381E02D0994EF92FF920F93E7
:100830001F93CF93DF93EC017B018A01888199811B
:10084000009729F02A813B812417350788F4B801E5
:100850006F5F7F4F0E947E0F009791F0998388838E
:100860001B830A832C813D81232B11F4FC01108210
:100870001D830C83B701888199810E9444100CC0AC
:1008800088819981009711F00E94F50E19821882D3
:100890001D821C821B821A82CE01DF91CF911F9193
:1008A0000F91FF90EF9008951F920F920FB60F9245
:1008B00011242F933F938F939F93AF93BF93809176
:1008C000790190917A01A0917B01B0917C013091E6
:1008D000780123E0230F2D3758F50196A11DB11D96
:1008E000209378018093790190937A01A0937B0102
:1008F000B0937C018091740190917501A091760173
:10090000B09177010196A11DB11D80937401909360
:100910007501A0937601B0937701BF91AF919F913C
:100920008F913F912F910F900FBE0F901F901895B0
:1009300026E8230F0296A11DB11DD2CF1F920F9260
:100940000FB60F9211242F933F934F935F936F93A2
:100950007F938F939F93AF93BF93EF93FF938DE715
:1009600091E00E943002FF91EF91BF91AF919F9172
:100970008F917F916F915F914F913F912F910F9048
:100980000FBE0F901F9018951F920F920FB60F92E7
:1009900011242F938F939F93EF93FF93E0918D01F9
:1009A000F0918E018081E0919301F091940182FD9C
:1009B0001BC09081809196018F5F8F73209197016A
:1009C000821741F0E0919601F0E0E358FE4F958FD9
:1009D00080939601FF91EF919F918F912F910F90AE
:1009E0000FBE0F901F9018958081F4CFEDE7F1E0D6
:1009F0001382128288EE93E0A0E0B0E084839583B6
:100A0000A683B7838CE091E09183808385EC90E0AE
:100A10009587848784EC90E09787868780EC90E0C8
:100A2000918B808B81EC90E0938B828B82EC90E0B9
:100A3000958B848B86EC90E0978B868B118E128E33
:100A4000138E148EE0E2F2E0138212828EE191E0C6
:100A5000918380838CE084838FEF85838BE0868312
:100A600085E0878384E0808783E0818782E08287D6
:100A70001386148615861686178681E00E945E030B
:100A8000EAE1F2E01182108213821282158214824E
:100A900050E040E06CE471E0CF010C941504CF937A
:100AA000DF93CDB7DEB72C970FB6F894DEBF0FBE3D
:100AB000CDBF789484B5826084BD84B5816084BDE7
:100AC00085B5826085BD85B5816085BD80916E00EC
:100AD000816080936E00109281008091810082601D
:100AE000809381008091810081608093810080915A
:100AF00080008160809380008091B1008460809349
:100B0000B1008091B00081608093B00080917A0044
:100B1000846080937A0080917A00826080937A006A
:100B200080917A00816080937A0080917A00806859
:100B300080937A001092C10087E00E94460160E035
:100B400087E00E94650182E00E945E0366E271E038
:100B500080E292E00E940604E0913302E23008F065
:100B60001DC1E150F0E0E05EFD4F848980680E9485
:100B7000580365E371E080E292E00E940604E09190
:100B80008D01F0918E0182E08083E0918901F091E6
:100B90008A011082E0918B01F0918C018FEC8083AF
:100BA00010929501E0919101F091920186E080838D
:100BB000E0918F01F0919001808180618083E091CC
:100BC0008F01F0919001808188608083E0918F0196
:100BD000F0919001808180688083E0918F01F09195
:100BE000900180818F7D80832BE5E22E21E0F22E23
:100BF0003BE3C32E3FE1D32E40E0A42E40E0B42ED1
:100C00008824839490E4992E8DE791E00E9410024D
:100C1000892B09F4ECC08DE791E00E94EE01E09190
:100C200073018A3019F08D3009F0D5C0EE2309F434
:100C3000B2C0AE2FB0E0A55ABE4F1C92ABE5B1E0FA
:100C400020E08D91082E000C990BC0970A9708F0B0
:100C5000A2C02F5F2E13F5CF1A8219821C821B822D
:100C60001E821D82F70101900020E9F7AF014C556B
:100C700051406BE571E0CE0101960E941504809110
:100C80001A0290911B02009709F48CC069817A8145
:100C90006115710509F484C040911C0250911D0238
:100CA0002D813E814217530708F47AC00E944410F8
:100CB0008D819E8190931F0280931E021E821D8251
:100CC00089819A81009711F00E94F50E80911E0291
:100CD00090911F029C01215031092817390708F013
:100CE00078C080911A0290911B02009709F471C09C
:100CF000820F931FFC018081082E000C990B4297F4
:100D0000909301018093000180925A0181E00E943A
:100D10005803C6010197F1F7E1E080913302811198
:100D2000E0E0E195F0E0E05EFD4F848980680E949C
:100D300058036FE371E080E292E00E940604409164
:100D40001E0250911F0260911A0270911B0280E2F4
:100D500092E00E94B20163E471E08DE791E00E94AD
:100D6000060440911E0250911F0260911A02709178
:100D70001B028DE791E00E94B2016AE471E08DE709
:100D800091E00E94060410925601109257011092B1
:100D90005801109259011092730136CFE1E0E2CE72
:100DA0000E94F50E89819A8190931B0280931A020A
:100DB0008B819C8190931D0280931C028D819E816A
:100DC00090931F0280931E021A8219821C821B823A
:100DD00075CF80E091CFE73108F016CF91E09E0FFC
:100DE00090937301F0E0E55AFE4F80830DCF80E4CD
:100DF00070E060E090927C0090917A009064909313
:100E00007A0090917A0096FDFCCF20917800309185
:100E10007900620F731F815069F790E080E00E94B3
:100E20005E0A2AE038E240EA58E30E94BF0A2AE458
:100E300037E04BEE5CE30E94B50B20E534EE49E76A
:100E400051E40E94210C28E03CEA4CE95FEB0E944F
:100E5000CE0C2B013C0120E030E0A9010E94590A90
:100E600087FDB2C020E030EC49E754E4C301B20191
:100E70000E94C90C18160CF4ABC020E030E0A901A8
:100E8000C301B2010E94C90C87FDAAC020E030E076
:100E900040E05FE3C301B2010E94B50B0E94930CD6
:100EA0000E94600A2B013C0180915A0160E0882376
:100EB00091F06091000170910101072E000C880BE8
:100EC000990B0E94600AA30192010E94590A682F9F
:100ED000661F6627661F87E00E9465012FB7F8949A
:100EE0008091790190917A01A0917B01B0917C0170
:100EF0002FBF20915A01222309F45AC04091560174
:100F00005091570160915801709159018C019D01D8
:100F1000041B150B260B370BB901A801443F5140A8
:100F20006105710508F444C0809356019093570100
:100F3000A0935801B09359018E010F5F1F4F21E01C
:100F400044E0C301B2010E940408E0913302E230A0
:100F500008F04FC0E150F0E0E05EFD4F848980680A
:100F60000E9458036DE471E080E292E00E94060462
:100F7000BE016F5F7F4F80E292E00E94060463E54E
:100F800071E080E292E00E9406046DE471E08DE77A
:100F900091E00E940604BE016F5F7F4F8DE791E0F4
:100FA0000E9406046AE471E08DE791E00E94060465
:100FB000A114B10409F428CE0E941C02882309F46C
:100FC00021CE0E9400001ECE412C512C32015ECF5A
:100FD000412C80EC582E89E7682E84E4782E56CF79
:100FE00020E030E040E05FE3C301B2010E94B40BB7
:100FF00055CFE1E0B0CF80911A0290911B0200978B
:1010000011F00C94F50E0895EF920F931F93CF9368
:10101000DF93E80134E047FD34E1042E000C550B6A
:1010200057FF03C0519541955109E32E022F242FFC
:10103000AE010E942208CE01DF91CF911F910F9146
:10104000EF900895A9E0B0E0E8E2F8E00C94830B9B
:101050006A01F22EB02E102FFBE3AF2EA01608F47B
:101060001BE31F5F012F27E0AE014F5F5F4F0E9420
:101070008109BC018981982F9970913009F43FC092
:101080009BE2E1FC04C09E2D9170E0FC3AC05E2D15
:101090005071E82FE87083FF46C084E0911101C0D1
:1010A00083E0EF2DE81B8F1508F0E0E0D6018E2FCE
:1010B00020E2552351F1992329F0D6019C93C601D2
:1010C00001966C0196012D5F3F4FE2FE24C08EE435
:1010D000D6018C9391E411969C93119712968C9360
:1010E000D9018E2F90E281111BC0E20FF32FF11D69
:1010F00010828EEF9FEF2996ECE00C949F0B9DE2FF
:10110000C6CF90E2C4CF2D9381508111FCCFCE0E7B
:10111000D11CE0E0D0CF8EE6D6018C9391E6DBCFF8
:101120009D938150E0CF482F447082FF3DC084E002
:10113000911101C083E08F1510F4EF2DE81BD6014B
:101140008E2F20E2552309F1992329F0D6019C9393
:10115000C60101966C0196012D5F3F4FE2FE1BC058
:1011600089E4D6018C938EE411968C93119786E4D2
:1011700012968C93D9018E2F90E2882309F4B5CF73
:101180009D938150FACF2D9381508111FCCFCE0ECB
:10119000D11CE0E0D9CF89E6D6018C938EE611967A
:1011A0008C93119786E6E4CF9B0177FF02C030E075
:1011B00020E0A1E0B0E0911102C0B0E0A0E0F901B0
:1011C0003196AE0FBF1F8B2C912CBB2009F461C050
:1011D0005401EFEFAE1ABE0AAA0DBB1DFA161B068C
:1011E00019F014F04F2D4A1B511188C0E3FC59C06F
:1011F0007601A42FB0E2A1114FC0C40ED11C9923D7
:1012000009F45BC040E0D6011196F60190836D01B0
:10121000552309F448C0012F060F9A81582F5071A9
:1012200084FF03C0913309F4015010160CF047C03D
:10123000093008F008E0EEE2FE2E5B01A01AB108CA
:1012400085019194819491082F3F320729F4D601AA
:10125000FC92F60131966F016217730794F1021741
:1012600013077CF5DB01A21BB30BAA24A394B12CBA
:10127000AC0EBD1EAA0DBB1D11968C9121503109DB
:10128000D601119628153905F4F0F60180836D0119
:10129000DBCFB12CA12CA0CFF701B1937F01A150DE
:1012A000AACF9111B0CFD601942F50E302C05D9325
:1012B00091509111FCCFC40ED11C40E0ACCF01E0A5
:1012C000BACF80E3DBCF6217730731F4963388F42B
:1012D000953311F4552369F0F6018083FD01842FC5
:1012E00090E2811108C0A40FB11D1C9290E080E033
:1012F00002CF81E3F1CF91938150F3CF911183CF4E
:101300008ACF283008F027E03327DA01990F311D02
:1013100087FD916000966105710539F432602E5F9A
:101320003D9330E32A95E1F708959F3F30F08038F0
:101330007105610509F03C5F3C5F3D93913008F019
:101340008068911DDF93CF931F930F93FF92EF92CD
:10135000192F987F9695E92F96959695E90FFF2777
:10136000EC5BFE4F99273327EE24FF24A701E7010A
:1013700005900894079428F4360FE71EF81E491FBD
:10138000511D660F771F881F991F0694A1F70590BE
:10139000079428F4E70EF81E491F561FC11D770F4A
:1013A000881F991F661F0694A1F70590079428F4DB
:1013B000F80E491F561FC71FD11D880F991F661FA2
:1013C000771F0694A1F70590079420F4490F561F44
:1013D000C71FD81F990F661F771F881F0694A9F78C
:1013E00084911095177041F0D695C79557954795FC
:1013F000F794E7941A95C1F7EAEEF0E06894159037
:10140000159135916591959105907FE27395E1185D
:10141000F10A430B560BC90BD009C0F7E10CF11EC2
:10142000431F561FC91FD01D7EF4703311F48A95D7
:10143000E6CFE894015030F0080F0AF400270217B5
:1014400008F4202F2395022F7A3328F079E37D9337
:101450002A95E9F710C07D932A9589F60694979509
:101460006795379517951794E118F10A430B560BBA
:10147000C90BD00998F023957E9173957A3308F0C3
:1014800070E37C932013B8F77E9170617D9330F008
:10149000839571E37D9370E32A95E1F71124EF9032
:1014A000FF900F911F91CF91DF91992787FD909524
:1014B00008950E949B0A08F481E00895E89409C009
:1014C00097FB3EF490958095709561957F4F8F4F77
:1014D0009F4F9923A9F0F92F96E9BB279395F6958D
:1014E000879577956795B795F111F8CFFAF4BB0F0B
:1014F00011F460FF1BC06F5F7F4F8F4F9F4F16C06F
:10150000882311F096E911C0772321F09EE8872FF8
:10151000762F05C0662371F096E8862F70E060E0B4
:101520002AF09A95660F771F881FDAF7880F96952D
:10153000879597F90895990F0008550FAA0BE0E8D1
:10154000FEEF16161706E807F907C0F01216130685
:10155000E407F50798F0621B730B840B950B39F4C5
:101560000A2661F0232B242B252B21F408950A262B
:1015700009F4A140A6958FEF811D811D08950E9459
:10158000D20A0C94430B0E94350B38F00E943C0B9E
:1015900020F0952311F00C942C0B0C94320B112499
:1015A0000C94770B0E94540B70F3959FC1F3950F29
:1015B00050E0551F629FF001729FBB27F00DB11DD7
:1015C000639FAA27F00DB11DAA1F649F6627B00D67
:1015D000A11D661F829F2227B00DA11D621F739F50
:1015E000B00DA11D621F839FA00D611D221F749F5E
:1015F0003327A00D611D231F849F600D211D822FA5
:10160000762F6A2F11249F5750409AF0F1F08823CB
:101610004AF0EE0FFF1FBB1F661F771F881F9150F8
:101620005040A9F79E3F510580F00C942C0B0C9470
:10163000770B5F3FE4F3983ED4F3869577956795F3
:10164000B795F795E7959F5FC1F7FE2B880F911D22
:101650009695879597F9089597F99F6780E870E0C8
:1016600060E008959FEF80EC089500240A94161618
:10167000170618060906089500240A941216130680
:10168000140605060895092E0394000C11F488230E
:1016900052F0BB0F40F4BF2B11F460FF04C06F5F2A
:1016A0007F4F8F4F9F4F089557FD9058440F551F00
:1016B00059F05F3F71F04795880F97FB991F61F0D4
:1016C0009F3F79F087950895121613061406551F4B
:1016D000F2CF4695F1DF08C0161617061806991FB7
:1016E000F1CF86957105610508940895E894BB27AC
:1016F00066277727CB0197F908952F923F924F9253
:101700005F926F927F928F929F92AF92BF92CF9291
:10171000DF92EF92FF920F931F93CF93DF93CDB79A
:10172000DEB7CA1BDB0B0FB6F894DEBF0FBECDBF12
:1017300009942A88398848885F846E847D848C84E3
:101740009B84AA84B984C884DF80EE80FD800C81EC
:101750001B81AA81B981CE0FD11D0FB6F894DEBFCF
:101760000FBECDBFED0108955058BB27AA270E9498
:10177000CC0B0C94430B0E94350B38F00E943C0BB1
:1017800020F039F49F3F19F426F40C94320B0EF438
:10179000E095E7FB0C942C0BE92F0E94540B58F3B7
:1017A000BA17620773078407950720F079F4A6F546
:1017B0000C94760B0EF4E0950B2EBA2FA02D0B0196
:1017C000B90190010C01CA01A0011124FF27591B86
:1017D00099F0593F50F4503E68F11A16F040A22F8C
:1017E000232F342F4427585FF3CF469537952795FD
:1017F000A795F0405395C9F77EF41F16BA0B620BFC
:10180000730B840BBAF09150A1F0FF0FBB1F661F42
:10181000771F881FC2F70EC0BA0F621F731F841F85
:1018200048F4879577956795B795F7959E3F08F0AB
:10183000B0CF9395880F08F09927EE0F979587956D
:1018400008950E94350C0C94430B0E943C0B58F0F9
:101850000E94350B40F029F45F3F29F00C942C0BCB
:1018600051110C94770B0C94320B0E94540B68F3BB
:101870009923B1F3552391F3951B550BBB27AA2749
:1018800062177307840738F09F5F5F4F220F331F83
:10189000441FAA1FA9F335D00E2E3AF0E0E832D04B
:1018A00091505040E695001CCAF72BD0FE2F29D04E
:1018B000660F771F881FBB1F261737074807AB0720
:1018C000B0E809F0BB0B802DBF01FF2793585F4F95
:1018D0003AF09E3F510578F00C942C0B0C94770B4A
:1018E0005F3FE4F3983ED4F3869577956795B79577
:1018F000F7959F5FC9F7880F911D9695879597F982
:101900000895E1E0660F771F881FBB1F62177307FA
:101910008407BA0720F0621B730B840BBA0BEE1F0F
:1019200088F7E09508950E949A0C6894B1110C9480
:10193000770B08950E945C0B88F09F5798F0B92FA1
:101940009927B751B0F0E1F0660F771F881F991FF4
:101950001AF0BA95C9F714C0B13091F00E94760B15
:10196000B1E008950C94760B672F782F8827B85F25
:1019700039F0B93FCCF3869577956795B395D9F74C
:101980003EF490958095709561957F4F8F4F9F4F56
:1019900008950E949B0A08F48FEF0895FA01EE0F54
:1019A000FF1F309621053105A1F16115710561F424
:1019B0008038BFE39B0749F168949038810561F056
:1019C0008038BFEF9B0741F099234AF5FF3FE105BF
:1019D0003105210519F1E8940894E795D901AA2366
:1019E00029F4AB2FBE2FF85FD0F310C0FF5F70F467
:1019F000A695E0F7F73950F019F0FF3A38F49F77E1
:101A00009F930DD00F9007FC9058089546F00C94CA
:101A1000320B60E070E080E89FE308954FE79F7726
:101A20005F934F933F932F930E94C90D2F913F9146
:101A30004F915F910E94BF0A0C94260D29F416F075
:101A40000C942C0B0C94760B0C94320B0E945C0BB8
:101A5000A8F39638A0F707F80F92E8942BE33AEA38
:101A600048EB5FE70E94D50A0F920F920F924DB795
:101A70005EB70F920E94110EE8E6F0E00E94580D4A
:101A80004F915F91EF91FF91E595EE1FFF1F49F098
:101A9000FE57E0684427EE0F441FFA95E1F74195A1
:101AA000550B0E948B0D0F9007FE0C947F0D08952F
:101AB000DF93CF931F930F93FF92EF92DF927B01FF
:101AC0008C01689406C0DA2EEF010E94D20AFE0152
:101AD000E894A5912591359145915591A6F3EF0193
:101AE0000E94CC0BFE019701A801DA9469F7DF9000
:101AF000EF90FF900F911F91CF91DF9108959B017F
:101B0000AC0160E070E080E89FE30C94210C0C9441
:101B10002C0B0C94450E0E945C0BD8F39923C9F34F
:101B2000940F511DA3F39150504094F059F0882325
:101B300032F0660F771F881F91505040C1F79E3FCB
:101B400051052CF7880F911D9695879597F9089563
:101B50005F3FACF0983E9CF0BB27869577956795E4
:101B6000B79508F4B1609395C1F7BB0F58F711F41E
:101B700060FFE8CF6F5F7F4F8F4F9F4FE3CF0C9495
:101B8000770B16F00C94450E0C94320B68940C9461
:101B90002C0B0E945C0BA8F39923C1F3AEF3DF93E7
:101BA000CF931F930F93FF92C92FDD2788232AF02D
:101BB0002197660F771F881FDAF720E030E040E8B2
:101BC0005FEB9FE3883920F0803E38F021968F77D5
:101BD0000E94B50BE0E9F0E004C00E94B50BEDEB0C
:101BE000F0E00E94580D8B01BE01EC01FB2E6F57F7
:101BF00071097595771F880B990B0E94600A28E17F
:101C000032E741E35FE30E94D20AAF2D9801AE01B3
:101C1000FF900F911F91CF91DF910E94CC0B0C94FC
:101C2000430BFA01DC01AA0FBB1F9B01AC01BF579C
:101C300028F4222733274427507820C0B75190F446
:101C4000AB2F0024469537952795011CA395D2F319
:101C5000002071F0220F331F441FB395DAF30ED02A
:101C60000C94B40B61307105A0E88A07B94630F4D2
:101C70009B01AC016627772788279078309621F062
:101C8000208331834283538308959F3F31F09150E5
:101C900020F4879577956795B795880F911D969550
:101CA000879597F90895EE0FFF1F0590F491E02DA9
:101CB00009940F931F93CF93DF938230910510F413
:101CC00082E090E0E0913A02F0913B0230E020E0C7
:101CD000B0E0A0E0309799F42115310509F44AC02D
:101CE000281B390B24303105D8F58A819B81611579
:101CF000710589F1FB0193838283FE0111C040814C
:101D000051810281138148175907E0F0481759079C
:101D100099F4109761F012960C93129713961C93F6
:101D20003296CF01DF91CF911F910F9108950093CB
:101D30003A0210933B02F4CF2115310551F04217BE
:101D4000530738F0A901DB019A01BD01DF01F80159
:101D5000C1CFEF01F9CF90933B0280933A02CDCFF0
:101D6000FE01E20FF31F81939193225031093983D1
:101D70002883D7CF2091380230913902232B41F4A8
:101D800020910401309105013093390220933802EB
:101D900020910201309103012115310541F42DB745
:101DA0003EB74091060150910701241B350BE0918D
:101DB0003802F0913902E217F307A0F42E1B3F0B13
:101DC0002817390778F0AC014E5F5F4F24173507AD
:101DD00048F04E0F5F1F50933902409338028193B1
:101DE00091939FCFF0E0E0E09CCFCF93DF930097FB
:101DF000E9F0FC01329713821282A0913A02B0916D
:101E00003B02ED0130E020E01097A1F42081318108
:101E1000820F931F20913802309139022817390719
:101E200009F061C0F0933902E0933802DF91CF915D
:101E30000895EA01CE17DF07E8F54A815B819E012C
:101E400041155105B1F7E901FB83EA8349915991A5
:101E5000C40FD51FEC17FD0761F4808191810296B4
:101E6000840F951FE90199838883828193819B83E5
:101E70008A83F0E0E0E012968D919C911397009791
:101E8000B9F52D913C911197CD010296820F931FC8
:101E900020913802309139022817390739F63097E6
:101EA00051F510923B0210923A02B0933902A0937E
:101EB0003802BCCFD383C28340815181840F951FE8
:101EC000C817D90761F44E5F5F4F88819981480F29
:101ED000591F518340838A819B819383828321157B
:101EE000310509F0B0CFF0933B02E0933A029ECF68
:101EF000FD01DC01C0CF13821282D7CFB0E0A0E099
:101F0000E4E8FFE00C947F0B8C01009751F4CB01C7
:101F10000E94590E8C01C801CDB7DEB7E0E10C94E8
:101F20009B0BFC01E60FF71F9C0122503109E217C1
:101F3000F30708F49DC0D901CD91DC911197C61724
:101F4000D70798F0C530D10530F3CE010497861736
:101F5000970708F3C61BD70B2297C193D1936D93B4
:101F60007C93CF010E94F50ED6CF5B01AC1ABD0A5F
:101F70004C018C0E9D1EA0913A02B0913B02512C57
:101F8000412CF12CE12C109731F580913802909181
:101F900039028815990509F05CC04616570608F005
:101FA00058C08091020190910301009741F48DB7D0
:101FB0009EB74091060150910701841B950BE817CD
:101FC000F90708F055C0F0933902E0933802F9019F
:101FD00071836083A0CF8D919C91119712966C9024
:101FE000129713967C901397A815B90559F56C01B3
:101FF00042E0C40ED11CCA14DB0420F1AC014A1922
:102000005B09DA011296159780F062827382518320
:102010004083D9016D937C93E114F10471F0D701F1
:102020001396FC93EE93129776CF22968C0F9D1FFA
:10203000F90191838083F301EFCFF0933B02E093AA
:102040003A0269CF4816590608F42C017D01D301E4
:102050009ACFCB010E94590E7C01009749F0AE0146
:10206000B8010E943B10C8010E94F50E870153CFB2
:1020700010E000E050CFFB01DC0102C001900D92A6
:1020800041505040D8F70895FB01DC0101900D92BA
:102090000020E1F7089511E0CBE1D1E004C0FE019A
:1020A0000E94530E2196CC31D107C9F7F894FFCF87
:1020B0001E0000003C028000000000005202B2013D
:1020C000DF019F021002EE01020200000000000486
:1020D000B201BF02B1015761697420666F72204975
:1020E000442E2E2E00444953543A2D2D2E2D0049B6
:1020F000443A004F4B3A49443D000D0A00444953CD
:06210000543A002000002B
:00000001FF
